{"abi":[{"type":"constructor","inputs":[],"stateMutability":"nonpayable"},{"type":"function","name":"approvedTargets","inputs":[{"name":"","type":"address","internalType":"address"},{"name":"","type":"address","internalType":"address"}],"outputs":[{"name":"","type":"bool","internalType":"bool"}],"stateMutability":"view"},{"type":"function","name":"checkSpend","inputs":[{"name":"agent","type":"address","internalType":"address"},{"name":"target","type":"address","internalType":"address"},{"name":"amountWei","type":"uint96","internalType":"uint96"}],"outputs":[{"name":"ok","type":"bool","internalType":"bool"},{"name":"reason","type":"string","internalType":"string"}],"stateMutability":"view"},{"type":"function","name":"dailySpent","inputs":[{"name":"","type":"address","internalType":"address"},{"name":"","type":"uint256","internalType":"uint256"}],"outputs":[{"name":"","type":"uint96","internalType":"uint96"}],"stateMutability":"view"},{"type":"function","name":"marketplace","inputs":[],"outputs":[{"name":"","type":"address","internalType":"address"}],"stateMutability":"view"},{"type":"function","name":"owner","inputs":[],"outputs":[{"name":"","type":"address","internalType":"address"}],"stateMutability":"view"},{"type":"function","name":"policies","inputs":[{"name":"","type":"address","internalType":"address"}],"outputs":[{"name":"operator","type":"address","internalType":"address"},{"name":"maxSinglePaymentWei","type":"uint96","internalType":"uint96"},{"name":"dailySpendLimitWei","type":"uint96","internalType":"uint96"},{"name":"validAfter","type":"uint64","internalType":"uint64"},{"name":"validBefore","type":"uint64","internalType":"uint64"},{"name":"active","type":"bool","internalType":"bool"}],"stateMutability":"view"},{"type":"function","name":"recordSpend","inputs":[{"name":"agent","type":"address","internalType":"address"},{"name":"amountWei","type":"uint96","internalType":"uint96"}],"outputs":[],"stateMutability":"nonpayable"},{"type":"function","name":"setApprovedTarget","inputs":[{"name":"agent","type":"address","internalType":"address"},{"name":"target","type":"address","internalType":"address"},{"name":"allowed","type":"bool","internalType":"bool"}],"outputs":[],"stateMutability":"nonpayable"},{"type":"function","name":"setMarketplace","inputs":[{"name":"_marketplace","type":"address","internalType":"address"}],"outputs":[],"stateMutability":"nonpayable"},{"type":"function","name":"setPolicy","inputs":[{"name":"agent","type":"address","internalType":"address"},{"name":"maxSinglePaymentWei","type":"uint96","internalType":"uint96"},{"name":"dailySpendLimitWei","type":"uint96","internalType":"uint96"},{"name":"validAfter","type":"uint64","internalType":"uint64"},{"name":"validBefore","type":"uint64","internalType":"uint64"}],"outputs":[],"stateMutability":"nonpayable"},{"type":"event","name":"ApprovedTargetSet","inputs":[{"name":"agent","type":"address","indexed":true,"internalType":"address"},{"name":"target","type":"address","indexed":true,"internalType":"address"},{"name":"allowed","type":"bool","indexed":false,"internalType":"bool"}],"anonymous":false},{"type":"event","name":"PolicySet","inputs":[{"name":"agent","type":"address","indexed":true,"internalType":"address"},{"name":"operator","type":"address","indexed":true,"internalType":"address"},{"name":"maxSinglePaymentWei","type":"uint96","indexed":false,"internalType":"uint96"},{"name":"dailySpendLimitWei","type":"uint96","indexed":false,"internalType":"uint96"},{"name":"validAfter","type":"uint64","indexed":false,"internalType":"uint64"},{"name":"validBefore","type":"uint64","indexed":false,"internalType":"uint64"}],"anonymous":false},{"type":"event","name":"SpendRecorded","inputs":[{"name":"agent","type":"address","indexed":true,"internalType":"address"},{"name":"dayIndex","type":"uint256","indexed":true,"internalType":"uint256"},{"name":"amountWei","type":"uint96","indexed":false,"internalType":"uint96"}],"anonymous":false}],"bytecode":{"object":"0x608080604052346026575f80546001600160a01b03191633179055610d11908161002b8239f35b5f80fdfe60806040526004361015610011575f80fd5b5f3560e01c80631cab1fcc1461090b57806320e986981461087c5780635cece493146105cf57806373ad6c2d146104c75780638da5cb5b146104a05780639061a57f14610453578063a285be321461031c578063aa8c84da146102af578063abc8c7af146102875763e907a34514610087575f80fd5b34610283576040366003190112610283576100a0610962565b6100a861098e565b6001549091906001600160a01b0316330361024c576001600160a01b03165f8181526002602052604090209160016100de6109f5565b938054828060a01b038116865260a01c602086015201549260ff60408201946001600160601b03811686526001600160401b038160601c1660608401526001600160401b038160a01c16608084015260e01c16159060a082159101526102155762015180420492825f52600460205260405f20845f526020526001600160601b03610173818060405f20541694168094610a4d565b91511681116101d9577f927ec5b4868990ae234f2771a1b18a4d7437eab64ee1697c648f413c3511fd6791602091845f526004835260405f20865f5283526001600160601b038060405f209216166001600160601b0319825416179055604051908152a3005b60405162461bcd60e51b815260206004820152601460248201527319185a5b1e481b1a5b5a5d08195e18d95959195960621b6044820152606490fd5b60405162461bcd60e51b815260206004820152600f60248201526e706f6c69637920696e61637469766560881b6044820152606490fd5b60405162461bcd60e51b815260206004820152600f60248201526e6e6f74206d61726b6574706c61636560881b6044820152606490fd5b5f80fd5b34610283575f366003190112610283576001546040516001600160a01b039091168152602090f35b346102835760603660031901126102835760606102e36102cd610962565b6102d5610978565b6102dd6109a4565b91610a6e565b91906020604051938492151583526040828401528051918291826040860152018484015e5f828201840152601f01601f19168101030190f35b3461028357606036600319011261028357610335610962565b61033d610978565b60443591821515809303610283576001600160a01b039081165f81815260026020526040902054909291161561041d57815f52600260205261038c60018060a01b0360405f20541633146109ba565b6001600160a01b03169182156103ea5760207fcac24fc34fb6fc6a8c4d1b197dc1db1ba3d1814c14cdd7e4c07a6264d1da0c7191835f526003825260405f20855f52825260405f2060ff1981541660ff8316179055604051908152a3005b60405162461bcd60e51b815260206004820152600b60248201526a1e995c9bc81d185c99d95d60aa1b6044820152606490fd5b60405162461bcd60e51b815260206004820152600e60248201526d1c1bdb1a58de481b9bdd081cd95d60921b6044820152606490fd5b34610283576040366003190112610283576001600160a01b03610474610962565b165f52600460205260405f206024355f5260205260206001600160601b0360405f205416604051908152f35b34610283575f366003190112610283575f546040516001600160a01b039091168152602090f35b34610283576020366003190112610283576104e0610962565b5f546001600160a01b0316330361059e576001600160a01b03168015610566576001546001600160a01b038116610521576001600160a01b03191617600155005b60405162461bcd60e51b815260206004820152601760248201527f6d61726b6574706c61636520616c7265616479207365740000000000000000006044820152606490fd5b60405162461bcd60e51b815260206004820152601060248201526f7a65726f206d61726b6574706c61636560801b6044820152606490fd5b60405162461bcd60e51b81526020600482015260096024820152683737ba1037bbb732b960b91b6044820152606490fd5b346102835760a0366003190112610283576105e8610962565b6105f061098e565b6105f86109a4565b916064356001600160401b03811680910361028357608435916001600160401b038316809303610283576001600160a01b031692831561084a576001600160601b0316938415610813576001600160601b031680156107db57818311156107a0575f848152600260205260409020546001600160a01b03168061078f575b5061067f6109f5565b33815260208101908682526040810191838352606082018581526001600160601b0380600160808601958a875260a08101958287528c5f52600260205260405f2091838060a01b039051168460a01b835416178255518154908460a01b9060a01b1690838060a01b031617815501955116166001600160601b031985541617845551918354906001600160401b0360a01b905160a01b169160ff60e01b9051151560e01b16926001600160401b0360601b9060601b169070ffffffffffffffffffffffffffffffffff60601b191617171790556040519485526020850152604084015260608301527f3d053cf4440e8c79eb14f39dfb689ac34be777c68559f207b5d2abac1d4f105860803393a3005b61079a9033146109ba565b85610676565b60405162461bcd60e51b8152602060048201526013602482015272696e76616c69642074696d652077696e646f7760681b6044820152606490fd5b60405162461bcd60e51b815260206004820152601060248201526f1e995c9bc819185a5b1e481b1a5b5a5d60821b6044820152606490fd5b60405162461bcd60e51b815260206004820152600f60248201526e7a65726f206d61782073696e676c6560881b6044820152606490fd5b60405162461bcd60e51b815260206004820152600a6024820152691e995c9bc81859d95b9d60b21b6044820152606490fd5b34610283576020366003190112610283576001600160a01b0361089d610962565b165f52600260205260c060405f2060ff600182549201546040519260018060a01b038116845260a01c60208401526001600160601b03811660408401526001600160401b038160601c1660608401526001600160401b038160a01c16608084015260e01c16151560a0820152f35b3461028357604036600319011261028357610924610962565b61092c610978565b9060018060a01b03165f52600360205260405f209060018060a01b03165f52602052602060ff60405f2054166040519015158152f35b600435906001600160a01b038216820361028357565b602435906001600160a01b038216820361028357565b602435906001600160601b038216820361028357565b604435906001600160601b038216820361028357565b156109c157565b60405162461bcd60e51b815260206004820152600c60248201526b3737ba1037b832b930ba37b960a11b6044820152606490fd5b6040519060c082018281106001600160401b03821117610a1457604052565b634e487b7160e01b5f52604160045260245ffd5b6040519190601f01601f191682016001600160401b03811183821017610a1457604052565b91908201809211610a5a57565b634e487b7160e01b5f52601160045260245ffd5b6001600160a01b03165f81815260026020526040902060609392610a906109f5565b946001835493818060a01b0385168852602088019460a01c855201549060408701966001600160601b03831688526001600160401b0383838301931c16825260ff60808201936001600160401b038160a01c16855260e01c16159060a08215910152610ca957516001600160401b03164210610c7257516001600160401b03164211610c4357825f52600360205260405f209060018060a01b03165f5260205260ff60405f20541615610c1057516001600160601b0392831692168211610bd4576001600160601b0391610b80915f52600460205260405f206201518042045f526020528260405f205416610a4d565b91511610610b9b57600190610b956020610a28565b5f815290565b5f90610ba76040610a28565b601a81527f616d6f756e742065786365656473206461696c79206c696d6974000000000000602082015290565b5050505f90610be36040610a28565b601981527f616d6f756e742065786365656473206d61782073696e676c6500000000000000602082015290565b505050505f90610c206040610a28565b60138152721d185c99d95d081b9bdd08185c1c1c9bdd9959606a1b602082015290565b50505050505f90610c546040610a28565b600e81526d1c1bdb1a58de48195e1c1a5c995960921b602082015290565b5050505050505f90610c846040610a28565b60158152741c1bdb1a58de481b9bdd081858dd1a5d99481e595d605a1b602082015290565b505050505050505f90610cbc6040610a28565b600f81526e706f6c69637920696e61637469766560881b60208201529056fea2646970667358221220785424503f28e274e56504da1a09c7c9ef1b53572240eb9d5758e16a030e001e64736f6c63430008210033","linkReferences":{}},"methodIdentifiers":{"approvedTargets(address,address)":"1cab1fcc","checkSpend(address,address,uint96)":"aa8c84da","dailySpent(address,uint256)":"9061a57f","marketplace()":"abc8c7af","owner()":"8da5cb5b","policies(address)":"20e98698","recordSpend(address,uint96)":"e907a345","setApprovedTarget(address,address,bool)":"a285be32","setMarketplace(address)":"73ad6c2d","setPolicy(address,uint96,uint96,uint64,uint64)":"5cece493"},"id":20}