{"abi":[{"type":"function","name":"getVerifiedReportHash","inputs":[{"name":"jobId","type":"uint256","internalType":"uint256"}],"outputs":[{"name":"","type":"bytes32","internalType":"bytes32"}],"stateMutability":"view"},{"type":"function","name":"isJobZkVerified","inputs":[{"name":"","type":"uint256","internalType":"uint256"}],"outputs":[{"name":"","type":"bool","internalType":"bool"}],"stateMutability":"view"},{"type":"function","name":"isVerified","inputs":[{"name":"jobId","type":"uint256","internalType":"uint256"}],"outputs":[{"name":"","type":"bool","internalType":"bool"}],"stateMutability":"view"},{"type":"function","name":"submitZKReport","inputs":[{"name":"jobId","type":"uint256","internalType":"uint256"},{"name":"reportHash","type":"bytes32","internalType":"bytes32"},{"name":"proof","type":"bytes","internalType":"bytes"}],"outputs":[],"stateMutability":"nonpayable"},{"type":"function","name":"verifiedReportHashByJob","inputs":[{"name":"","type":"uint256","internalType":"uint256"}],"outputs":[{"name":"","type":"bytes32","internalType":"bytes32"}],"stateMutability":"view"},{"type":"event","name":"ReportVerified","inputs":[{"name":"jobId","type":"uint256","indexed":true,"internalType":"uint256"},{"name":"reportHash","type":"bytes32","indexed":false,"internalType":"bytes32"},{"name":"verifier","type":"address","indexed":true,"internalType":"address"}],"anonymous":false},{"type":"error","name":"AlreadyVerified","inputs":[{"name":"jobId","type":"uint256","internalType":"uint256"}]},{"type":"error","name":"InvalidInput","inputs":[]}],"bytecode":{"object":"0x608080604052346015576101f8908161001a8239f35b5f80fdfe6080806040526004361015610012575f80fd5b5f3560e01c9081631bcb4b701461019d575080632907c1851461017457806337b6d96b146101455780635627400d1461014557637656948014610053575f80fd5b346101415760603660031901126101415760243560043560443567ffffffffffffffff8111610141573660238201121561014157806004013567ffffffffffffffff811161014157369101602401116101415780158015610139575b61012a57805f52600160205260ff60405f20541661011957805f525f6020528160405f2055805f52600160205260405f20600160ff198254161790556040519182527f8c05443b6535114f87816c1d913f5140f8bde03c40f84a96116e4cc4ac9be7d660203393a3005b625a2f6960e91b5f5260045260245ffd5b63b4fa3fb360e01b5f5260045ffd5b5081156100af565b5f80fd5b34610141576020366003190112610141576004355f526001602052602060ff60405f2054166040519015158152f35b34610141576020366003190112610141576004355f525f602052602060405f2054604051908152f35b34610141576020366003190112610141576020906004355f525f825260405f20548152f3fea2646970667358221220a21b829364289d952f9aa0dd68593cb5a82ac7200d32d0984652275cf8ccb37064736f6c63430008210033","linkReferences":{}},"methodIdentifiers":{"getVerifiedReportHash(uint256)":"1bcb4b70","isJobZkVerified(uint256)":"5627400d","isVerified(uint256)":"37b6d96b","submitZKReport(uint256,bytes32,bytes)":"76569480","verifiedReportHashByJob(uint256)":"2907c185"},"id":0}