{"abi":[{"type":"constructor","inputs":[{"name":"_directory","type":"address","internalType":"address"},{"name":"_escrow","type":"address","internalType":"address"},{"name":"_policy","type":"address","internalType":"address"},{"name":"_treasury","type":"address","internalType":"address"}],"stateMutability":"nonpayable"},{"type":"function","name":"acceptJob","inputs":[{"name":"jobId","type":"uint256","internalType":"uint256"}],"outputs":[],"stateMutability":"payable"},{"type":"function","name":"childJobs","inputs":[{"name":"","type":"uint256","internalType":"uint256"},{"name":"","type":"uint256","internalType":"uint256"}],"outputs":[{"name":"","type":"uint256","internalType":"uint256"}],"stateMutability":"view"},{"type":"function","name":"createJob","inputs":[{"name":"category","type":"bytes32","internalType":"bytes32"},{"name":"specURI","type":"string","internalType":"string"},{"name":"rewardWei","type":"uint96","internalType":"uint96"},{"name":"deadline","type":"uint64","internalType":"uint64"}],"outputs":[{"name":"jobId","type":"uint256","internalType":"uint256"}],"stateMutability":"payable"},{"type":"function","name":"createSubtask","inputs":[{"name":"parentJobId","type":"uint256","internalType":"uint256"},{"name":"category","type":"bytes32","internalType":"bytes32"},{"name":"specURI","type":"string","internalType":"string"},{"name":"rewardWei","type":"uint96","internalType":"uint96"},{"name":"deadline","type":"uint64","internalType":"uint64"},{"name":"preferredAgent","type":"address","internalType":"address"}],"outputs":[{"name":"subtaskId","type":"uint256","internalType":"uint256"}],"stateMutability":"payable"},{"type":"function","name":"directory","inputs":[],"outputs":[{"name":"","type":"address","internalType":"contract IAgentDirectory"}],"stateMutability":"view"},{"type":"function","name":"escrow","inputs":[],"outputs":[{"name":"","type":"address","internalType":"contract IEscrowBond"}],"stateMutability":"view"},{"type":"function","name":"getChildJobs","inputs":[{"name":"parentJobId","type":"uint256","internalType":"uint256"}],"outputs":[{"name":"","type":"uint256[]","internalType":"uint256[]"}],"stateMutability":"view"},{"type":"function","name":"jobs","inputs":[{"name":"","type":"uint256","internalType":"uint256"}],"outputs":[{"name":"id","type":"uint256","internalType":"uint256"},{"name":"parentJobId","type":"uint256","internalType":"uint256"},{"name":"creator","type":"address","internalType":"address"},{"name":"assignedAgent","type":"address","internalType":"address"},{"name":"preferredAgent","type":"address","internalType":"address"},{"name":"category","type":"bytes32","internalType":"bytes32"},{"name":"specURI","type":"string","internalType":"string"},{"name":"resultURI","type":"string","internalType":"string"},{"name":"rewardWei","type":"uint96","internalType":"uint96"},{"name":"bondWeiRequired","type":"uint96","internalType":"uint96"},{"name":"deadline","type":"uint64","internalType":"uint64"},{"name":"status","type":"uint8","internalType":"enum IBondedTypes.JobStatus"},{"name":"isSubtask","type":"bool","internalType":"bool"}],"stateMutability":"view"},{"type":"function","name":"markCompleted","inputs":[{"name":"jobId","type":"uint256","internalType":"uint256"}],"outputs":[],"stateMutability":"nonpayable"},{"type":"function","name":"markFailed","inputs":[{"name":"jobId","type":"uint256","internalType":"uint256"}],"outputs":[],"stateMutability":"nonpayable"},{"type":"function","name":"nextJobId","inputs":[],"outputs":[{"name":"","type":"uint256","internalType":"uint256"}],"stateMutability":"view"},{"type":"function","name":"policy","inputs":[],"outputs":[{"name":"","type":"address","internalType":"contract ISpendingPolicy"}],"stateMutability":"view"},{"type":"function","name":"submitResult","inputs":[{"name":"jobId","type":"uint256","internalType":"uint256"},{"name":"resultURI","type":"string","internalType":"string"}],"outputs":[],"stateMutability":"nonpayable"},{"type":"function","name":"treasury","inputs":[],"outputs":[{"name":"","type":"address","internalType":"address"}],"stateMutability":"view"},{"type":"event","name":"JobAccepted","inputs":[{"name":"jobId","type":"uint256","indexed":true,"internalType":"uint256"},{"name":"agent","type":"address","indexed":true,"internalType":"address"},{"name":"bondWeiRequired","type":"uint96","indexed":false,"internalType":"uint96"}],"anonymous":false},{"type":"event","name":"JobCompleted","inputs":[{"name":"jobId","type":"uint256","indexed":true,"internalType":"uint256"}],"anonymous":false},{"type":"event","name":"JobCreated","inputs":[{"name":"jobId","type":"uint256","indexed":true,"internalType":"uint256"},{"name":"parentJobId","type":"uint256","indexed":true,"internalType":"uint256"},{"name":"creator","type":"address","indexed":true,"internalType":"address"},{"name":"category","type":"bytes32","indexed":false,"internalType":"bytes32"},{"name":"rewardWei","type":"uint96","indexed":false,"internalType":"uint96"},{"name":"deadline","type":"uint64","indexed":false,"internalType":"uint64"},{"name":"isSubtask","type":"bool","indexed":false,"internalType":"bool"}],"anonymous":false},{"type":"event","name":"JobFailed","inputs":[{"name":"jobId","type":"uint256","indexed":true,"internalType":"uint256"}],"anonymous":false},{"type":"event","name":"ResultSubmitted","inputs":[{"name":"jobId","type":"uint256","indexed":true,"internalType":"uint256"},{"name":"agent","type":"address","indexed":true,"internalType":"address"},{"name":"resultURI","type":"string","indexed":false,"internalType":"string"}],"anonymous":false},{"type":"event","name":"SubtaskCreated","inputs":[{"name":"jobId","type":"uint256","indexed":true,"internalType":"uint256"},{"name":"parentJobId","type":"uint256","indexed":true,"internalType":"uint256"},{"name":"preferredAgent","type":"address","indexed":true,"internalType":"address"}],"anonymous":false}],"bytecode":{"object":"0x6080346101d257601f61230238819003918201601f19168301916001600160401b038311848410176101d6578084926080946040528339810103126101d257610047816101ea565b610053602083016101ea565b9161006c6060610065604084016101ea565b92016101ea565b60015f556001600160a01b0390921692831561019c576001600160a01b0316908115610169576001600160a01b0316918215610136576001600160a01b03169283156101015760018060a01b0319600454161760045560018060a01b0319600554161760055560018060a01b0319600654161760065560018060a01b0319600154161760015560405161210390816101ff8239f35b60405162461bcd60e51b815260206004820152600d60248201526c7a65726f20747265617375727960981b6044820152606490fd5b60405162461bcd60e51b815260206004820152600b60248201526a7a65726f20706f6c69637960a81b6044820152606490fd5b60405162461bcd60e51b815260206004820152600b60248201526a7a65726f20657363726f7760a81b6044820152606490fd5b60405162461bcd60e51b815260206004820152600e60248201526d7a65726f206469726563746f727960901b6044820152606490fd5b5f80fd5b634e487b7160e01b5f52604160045260245ffd5b51906001600160a01b03821682036101d25756fe6080806040526004361015610012575f80fd5b5f905f3560e01c9081630505c8c914611c1857508063180aedf314611b025780632e66884f146112ca57806361d027b3146112a157806363b2f3c914610e915780638b65aa8714610e485780638c0dd79a14610b9f578063a4545bbd14610af8578063a6d310831461062d578063b0c2aa5e14610610578063c41c2f24146105e7578063cac5c512146103a5578063e2fdcc171461037c5763f3634a32146100b8575f80fd5b34610379576020366003190112610379576004358082526002602052604082206100e481541515611fc6565b600981019060ff8254166007811015610365576002811490811561035a575b50156103205783916101153385612077565b8015610310575b6101259061203c565b805460ff1916600590811782555460028301546001600160a01b039081169116803b1561030c5760405163388cfbf760e01b8152600481018790526001600160a01b0392909216602483015284908290604490829084905af19081156103015784916102ec575b50505460081c60ff16806102d3575b806102bd575b6101ce575b50807fb75cf56c3b87307029f0059a671fedc39db6212ba4ef07f39d4f053185dc900691a280f35b6005546001546001600160a01b039081169116803b156102b957604051630750ee8360e21b8152600481018690526001600160a01b0392909216602483015283908290604490829084905af19081156102ae578391610299575b50506004546003909101546001600160a01b039182169116813b15610295578291602483926040519485938492630c7b075560e11b845260048401525af1801561028a57156101a6578161027b91611ca3565b61028657815f6101a6565b5080fd5b6040513d84823e3d90fd5b8280fd5b816102a391611ca3565b61028657815f610228565b6040513d85823e3d90fd5b8380fd5b5060038101546001600160a01b031615156101a1565b506001600160601b03600882015460601c16151561019b565b816102f691611ca3565b61029557825f61018c565b6040513d86823e3d90fd5b8480fd5b50600882015460c01c421161011c565b60405162461bcd60e51b81526020600482015260126024820152716a6f62206e6f74207265736f6c7661626c6560701b6044820152606490fd5b60039150145f610103565b634e487b7160e01b85526021600452602485fd5b80fd5b50346103795780600319360112610379576005546040516001600160a01b039091168152602090f35b5034610379576020366003190112610379576004358082526002602052604082206103d281541515611fc6565b6009810160ff8154166007811015610365576003036105ae5783916103ff6103fa3386612077565b61203c565b815460ff191660041782556005546003820180549093916001600160a01b039182169116803b156105aa57604051630f6a0adb60e41b8152600481018890526001600160a01b0392909216602483015285908290604490829084905af190811561059f57859161058a575b50505460081c60ff169081610570575b506104a8575b50807f02244c8529cb95e213ee542e76e7776342b3dabd10203d01472bbf4441be892991a280f35b60055481546001600160a01b039081169116803b156102b957604051630648c57960e51b8152600481018690526001600160a01b0392909216602483015283908290604490829084905af19081156102ae57839161055b575b505060045490546001600160a01b039182169116813b156102955782916024839260405194859384926339473eff60e11b845260048401525af1801561028a5715610480578161055091611ca3565b61028657815f610480565b8161056591611ca3565b61028657815f610501565b6001600160601b0391506008015460601c1615155f61047a565b8161059491611ca3565b6102b957835f61046a565b6040513d87823e3d90fd5b8580fd5b60405162461bcd60e51b81526020600482015260116024820152701a9bd8881b9bdd081cdd589b5a5d1d1959607a1b6044820152606490fd5b50346103795780600319360112610379576004546040516001600160a01b039091168152602090f35b503461037957806003193601126103795760209054604051908152f35b506080366003190112610379576024356001600160401b03811161028657610659903690600401611d88565b91604435906001600160601b0382168203610379576064356001600160401b03811681036102865761068e6004351515611dde565b610699851515611e1a565b6001600160601b0383163403610ab3576106bd6001600160601b0384161515611e57565b6106d1426001600160401b03831611611e91565b6107198254946106e086611ef8565b8455604051966106ef88611c73565b86885284602089015233604089015284606089015284608089015260043560a08901523691611f1a565b60c086015260209460405161072e8782611ca3565b83815260e08201526001600160601b03841661010082015261012081018390526001600160401b038281166101408301526001610160830181905261018083018581528786526002808a5260408088208651815560208701519481019490945585015190830180546001600160a01b039283166001600160a01b0319918216179091556060860151600385018054918416918316919091179055608086015160048501805491909316911617905560a0840151600583015560c084015180519193600684019291908211610a3b576108108261080a8554611c3b565b85611f50565b8a90601f8311600114610a4f5761083e92918991836109c5575b50508160011b915f199060031b1c19161790565b90555b6007810160e08401518051906001600160401b038211610a3b576108698261080a8554611c3b565b8a90601f83116001146109d0578261016095936009959361089e938c926109c55750508160011b915f199060031b1c19161790565b90555b61010085015161012086015161014087015160c01b6001600160c01b0319166001600160601b0390921660609190911b600160601b600160c01b03161717600882015591909301519201916007811015610365576108ff9083611fae565b51815461ff00191690151560081b61ff00161790556005546001600160a01b0316803b1561029557826024916040519283809263250055e760e01b825289600483015234905af180156102ae579083916109b0575b50506001600160401b03906001600160601b036040519460043586521686850152166040830152806060830152827f1ee49ee641b21459160c4aa6648e943b5f32a7b884b002a1e966adb923c2cde960803394a4604051908152f35b816109ba91611ca3565b61028657815f610954565b015190505f8061082a565b8389528b89209190601f1984168a8e5b828210610a2357505092600192859261016098966009989610610a0b575b505050811b0190556108a1565b01515f1960f88460031b161c191690555f80806109fe565b806001869782949787015181550196019401906109e0565b634e487b7160e01b88526041600452602488fd5b8389528b89209190601f1984168a8e5b828210610a9b575050908460019594939210610a83575b505050811b019055610841565b01515f1960f88460031b161c191690555f8080610a76565b80600186978294978701518155019601940190610a5f565b60405162461bcd60e51b815260206004820152601860248201527f696e636f7272656374207265776172642066756e64696e6700000000000000006044820152606490fd5b5034610379576020366003190112610379576004358152600360205260408120604051908160208254918281520190819285526020852090855b818110610b895750505082610b48910383611ca3565b604051928392602084019060208552518091526040840192915b818110610b70575050500390f35b8251845285945060209384019390920191600101610b62565b8254845260209093019260019283019201610b32565b503461037957604036600319011261037957600435906024356001600160401b03811161028657610bd4903690600401611d88565b909280835260026020526040832093610bef85541515611fc6565b600985019460ff8654166007811015610e3457600203610dfc5760038101546001600160a01b03163303610dc257610c30600882015460c01c421115612002565b8315610d8e57600701946001600160401b038411610d7a57610c5c84610c568854611c3b565b88611f50565b8495601f8511600114610cf757610cad858088997fc06b551d984e333ac851ab20b1454a08d92740468f52ff54c0cd5270817f20a997989991610cec575b508160011b915f199060031b1c19161790565b90555b600360ff19825416179055836040519160208352816020840152604083013784604085830101526040813395601f80199101168101030190a380f35b90508501355f610c9a565b80865260208620601f19861697875b898110610d625750867fc06b551d984e333ac851ab20b1454a08d92740468f52ff54c0cd5270817f20a99697989910610d49575b5050600186811b019055610cb0565b8401355f19600389901b60f8161c191690555f80610d3a565b90916020600181928589013581550193019101610d06565b634e487b7160e01b85526041600452602485fd5b60405162461bcd60e51b815260206004820152600c60248201526b195b5c1d1e481c995cdd5b1d60a21b6044820152606490fd5b60405162461bcd60e51b81526020600482015260126024820152711b9bdd08185cdcda59db9959081859d95b9d60721b6044820152606490fd5b60405162461bcd60e51b815260206004820152601060248201526f1a9bd8881b9bdd081858d8d95c1d195960821b6044820152606490fd5b634e487b7160e01b86526021600452602486fd5b503461037957604036600319011261037957602435906004358152600360205260408120908154831015610379576020610e828484611db5565b90549060031b1c604051908152f35b5060203660031901126103795760043580825260026020526040822090610eba82541515611fc6565b60098201805460ff81166007811015610e345760010361126d576008840190815490610eeb8260c01c421115612002565b60048601546001600160a01b031680611226575b50869060081c60ff16156111d95750600480546005870154604051635058e33f60e11b8152339381019390935260248301526001600160a01b03169190602081604481865afa9081156111ce578891611190575b5015611157576020602492604051938480926304a3e9a360e11b82523360048301525afa91821561114c578792611102575b506001600160601b0361ffff91169116908181029181830414901517156110ee576127106001600160601b03910416938434036110b8576005546001600160a01b03169086823b156103795780604493604051948580926314077c1d60e31b82528a600483015233602483015234905af19283156110ab578793611090575b505091600361104d935b0180546001600160a01b0319163317905580546bffffffffffffffffffffffff60601b191660609290921b600160601b600160c01b0316919091179055565b600260ff198254161790556001600160601b03604051921682527f50adb3307747836538b62a264510cffe42012b516ef36719f803024d5ca0146f60203393a380f35b819293509061109e91611ca3565b6105aa578490865f611004565b50604051903d90823e3d90fd5b60405162461bcd60e51b815260206004820152600e60248201526d1a5b98dbdc9c9958dd08189bdb9960921b6044820152606490fd5b634e487b7160e01b86526011600452602486fd5b9091506020813d602011611144575b8161111e60209383611ca3565b81010312611140575161ffff8116810361114057906001600160601b03610f85565b8680fd5b3d9150611111565b6040513d89823e3d90fd5b60405162461bcd60e51b81526020600482015260116024820152706167656e74206e6f742063617061626c6560781b6044820152606490fd5b90506020813d6020116111c6575b816111ab60209383611ca3565b810103126111c2576111bc90611ed0565b5f610f53565b8780fd5b3d915061119e565b6040513d8a823e3d90fd5b949050346111ee5761104d916003869261100e565b60405162461bcd60e51b815260206004820152601060248201526f1b9bc8189bdb99081c995c5d5a5c995960821b6044820152606490fd5b3303611232575f610eff565b60405162461bcd60e51b81526020600482015260136024820152721b9bdd081c1c9959995c9c9959081859d95b9d606a1b6044820152606490fd5b60405162461bcd60e51b815260206004820152600c60248201526b3537b1103737ba1037b832b760a11b6044820152606490fd5b50346103795780600319360112610379576001546040516001600160a01b039091168152602090f35b5060c0366003190112611908576044356001600160401b038111611908576112f6903690600401611d88565b9190606435916001600160601b038316830361190857608435926001600160401b03841684036119085760a435936001600160a01b0385168503611908576004355f52600260205260405f20805415611aca5760ff6009820154166007811015611ab657600203611a7d5760038101546001600160a01b03163303611a45576113826024351515611dde565b61138d871515611e1a565b6113a16001600160601b0384161515611e57565b6001600160601b0383163403611a00576008906113c8426001600160401b03851611611e91565b015460c01c6001600160401b038216116119bb57600654604051635546426d60e11b81523360048201523060248201526001600160601b03841660448201526001600160a01b03909116905f81606481855afa9081156118fd575f905f92611934575b501561190c5750803b15611908575f809160446040518094819363e907a34560e01b83523360048401526001600160601b03891660248401525af180156118fd576118e8575b506114c683549461148186611ef8565b85556040519761149089611c73565b86895260043560208a01523360408a0152606089018690526001600160a01b03881660808a015260243560a08a01523691611f1a565b60c08701526020956040516114db8882611ca3565b84815260e08201526001600160601b03831661010082015261012081018490526001600160401b038281166101408301526001610160830181905261018083018190528686526002808a5260408088208551815560208601519381019390935584015190820180546001600160a01b039283166001600160a01b0319918216179091556060850151600384018054918416918316919091179055608085015160048401805491909316911617905560a0830151600582015560c083015180519192821161186c576115bc826115b36006860154611c3b565b60068601611f50565b8990601f8311600114611880576115e992918891836109c55750508160011b915f199060031b1c19161790565b60068201555b60e08201518051906001600160401b03821161186c5761161f826116166007860154611c3b565b60078601611f50565b8990601f831160011461180157918061165092600995948a926109c55750508160011b915f199060031b1c19161790565b60078201555b61010083015161012084015161014085015160c01b6001600160c01b0319166001600160601b0390921660609190911b600160601b600160c01b031617176008820155610160830151910191906007811015610e3457906116ba6101809284611fae565b0151815461ff00191690151560081b61ff00161790556004358352600386526040832080549068010000000000000000821015610d7a579061170191600182018155611db5565b81545f1960039290921b91821b19169086901b1790556005546001600160a01b0316803b156102b957836024916040519283809263250055e760e01b825289600483015234905af18015610301579084916117ec575b50506001600160401b03906001600160601b036040519360243585521687840152166040820152600160608201523390837f1ee49ee641b21459160c4aa6648e943b5f32a7b884b002a1e966adb923c2cde9608060043593a4604051926001600160a01b0316906004359083907f6fc30205381a69574aae0e83130e3392f6fe02fed036d118d262f7a66c743bfa9080a48152f35b816117f691611ca3565b61029557825f611757565b6007840188528a88209190601f198416895b8d82821061185657505091600193918560099796941061183e575b505050811b016007820155611656565b01515f1960f88460031b161c191690555f808061182e565b6001859682939686015181550195019301611813565b634e487b7160e01b87526041600452602487fd5b6006840188528a88209190601f198416895b8d8282106118d25750509084600195949392106118ba575b505050811b0160068201556115ef565b01515f1960f88460031b161c191690555f80806118aa565b6001859682939686015181550195019301611892565b6118f59193505f90611ca3565b5f915f611471565b6040513d5f823e3d90fd5b5f80fd5b60405162461bcd60e51b815260206004820152908190611930906024830190611d64565b0390fd5b9150503d805f833e6119468183611ca3565b8101906040818303126119085761195c81611ed0565b906020810151906001600160401b038211611908570182601f820112156119085780519061198982611edd565b936119976040519586611ca3565b8285526020838301011161190857815f9260208093018387015e840101525f61142b565b60405162461bcd60e51b815260206004820152601e60248201527f7375627461736b206265796f6e6420706172656e7420646561646c696e6500006044820152606490fd5b60405162461bcd60e51b815260206004820152601960248201527f696e636f7272656374207375627461736b2066756e64696e67000000000000006044820152606490fd5b60405162461bcd60e51b815260206004820152601060248201526f1b9bdd081c185c995b9d081859d95b9d60821b6044820152606490fd5b60405162461bcd60e51b8152602060048201526011602482015270706172656e74206e6f742061637469766560781b6044820152606490fd5b634e487b7160e01b5f52602160045260245ffd5b60405162461bcd60e51b815260206004820152601060248201526f1c185c995b9d081b9bdd08199bdd5b9960821b6044820152606490fd5b34611908576020366003190112611908576004355f52600260205260405f2080549060018101549060018060a01b0360028201541691611bc760018060a01b03600384015416611bb960018060a01b036004860154166005860154611b6960068801611cc4565b91611b7660078901611cc4565b94600960088a01549901549960ff8b16986040519c8d5260208d015260408c015260608b015260808a015260a08901526101a060c08901526101a0880190611d64565b9086820360e0880152611d64565b916001600160601b0381166101008601526001600160601b038160601c1661012086015260c01c6101408501526007811015611ab657839260ff9161016085015260081c1615156101808301520390f35b34611908575f366003190112611908576006546001600160a01b03168152602090f35b90600182811c92168015611c69575b6020831014611c5557565b634e487b7160e01b5f52602260045260245ffd5b91607f1691611c4a565b6101a081019081106001600160401b03821117611c8f57604052565b634e487b7160e01b5f52604160045260245ffd5b90601f801991011681019081106001600160401b03821117611c8f57604052565b9060405191825f825492611cd784611c3b565b8084529360018116908115611d425750600114611cfe575b50611cfc92500383611ca3565b565b90505f9291925260205f20905f915b818310611d26575050906020611cfc928201015f611cef565b6020919350806001915483858901015201910190918492611d0d565b905060209250611cfc94915060ff191682840152151560051b8201015f611cef565b805180835260209291819084018484015e5f828201840152601f01601f1916010190565b9181601f84011215611908578235916001600160401b038311611908576020838186019501011161190857565b8054821015611dca575f5260205f2001905f90565b634e487b7160e01b5f52603260045260245ffd5b15611de557565b60405162461bcd60e51b815260206004820152600d60248201526c7a65726f2063617465676f727960981b6044820152606490fd5b15611e2157565b60405162461bcd60e51b815260206004820152600e60248201526d656d70747920737065632055524960901b6044820152606490fd5b15611e5e57565b60405162461bcd60e51b815260206004820152600b60248201526a1e995c9bc81c995dd85c9960aa1b6044820152606490fd5b15611e9857565b60405162461bcd60e51b815260206004820152601060248201526f696e76616c696420646561646c696e6560801b6044820152606490fd5b5190811515820361190857565b6001600160401b038111611c8f57601f01601f191660200190565b5f198114611f065760010190565b634e487b7160e01b5f52601160045260245ffd5b929192611f2682611edd565b91611f346040519384611ca3565b829481845281830111611908578281602093845f960137010152565b919091601f8311611f61575b505050565b818311611f6d57505050565b5f5260205f206020601f830160051c9210611fa6575b81601f9101920160051c03905f5b82811015611f5c575f82820155600101611f91565b5f9150611f83565b906007811015611ab65760ff80198354169116179055565b15611fcd57565b60405162461bcd60e51b815260206004820152600d60248201526c1a9bd8881b9bdd08199bdd5b99609a1b6044820152606490fd5b1561200957565b60405162461bcd60e51b815260206004820152600b60248201526a1a9bd888195e1c1a5c995960aa1b6044820152606490fd5b1561204357565b60405162461bcd60e51b815260206004820152600c60248201526b3737ba103932b9b7b63b32b960a11b6044820152606490fd5b5f52600260205260405f2060ff600982015460081c16156120b857600101545f908152600260205260409020600301546001600160a01b0391821691161490565b600201546001600160a01b039182169116149056fea26469706673582212209a38ab0e27e741b71379e9b6f71d2f969b4c2608bdc7e9c1cf1764527d827c2764736f6c63430008210033","linkReferences":{}},"methodIdentifiers":{"acceptJob(uint256)":"63b2f3c9","childJobs(uint256,uint256)":"8b65aa87","createJob(bytes32,string,uint96,uint64)":"a6d31083","createSubtask(uint256,bytes32,string,uint96,uint64,address)":"2e66884f","directory()":"c41c2f24","escrow()":"e2fdcc17","getChildJobs(uint256)":"a4545bbd","jobs(uint256)":"180aedf3","markCompleted(uint256)":"cac5c512","markFailed(uint256)":"f3634a32","nextJobId()":"b0c2aa5e","policy()":"0505c8c9","submitResult(uint256,string)":"8c0dd79a","treasury()":"61d027b3"},"id":19}