{"abi":[{"type":"constructor","inputs":[],"stateMutability":"nonpayable"},{"type":"function","name":"bonds","inputs":[{"name":"","type":"uint256","internalType":"uint256"}],"outputs":[{"name":"bondedAgent","type":"address","internalType":"address"},{"name":"amountWei","type":"uint96","internalType":"uint96"},{"name":"posted","type":"bool","internalType":"bool"},{"name":"settled","type":"bool","internalType":"bool"}],"stateMutability":"view"},{"type":"function","name":"fundJobReward","inputs":[{"name":"jobId","type":"uint256","internalType":"uint256"}],"outputs":[],"stateMutability":"payable"},{"type":"function","name":"marketplace","inputs":[],"outputs":[{"name":"","type":"address","internalType":"address"}],"stateMutability":"view"},{"type":"function","name":"owner","inputs":[],"outputs":[{"name":"","type":"address","internalType":"address"}],"stateMutability":"view"},{"type":"function","name":"postBond","inputs":[{"name":"jobId","type":"uint256","internalType":"uint256"},{"name":"bondedAgent","type":"address","internalType":"address"}],"outputs":[],"stateMutability":"payable"},{"type":"function","name":"refundReward","inputs":[{"name":"jobId","type":"uint256","internalType":"uint256"},{"name":"to","type":"address","internalType":"address payable"}],"outputs":[],"stateMutability":"nonpayable"},{"type":"function","name":"releaseReward","inputs":[{"name":"jobId","type":"uint256","internalType":"uint256"},{"name":"to","type":"address","internalType":"address payable"}],"outputs":[],"stateMutability":"nonpayable"},{"type":"function","name":"returnBond","inputs":[{"name":"jobId","type":"uint256","internalType":"uint256"},{"name":"to","type":"address","internalType":"address payable"}],"outputs":[],"stateMutability":"nonpayable"},{"type":"function","name":"rewards","inputs":[{"name":"","type":"uint256","internalType":"uint256"}],"outputs":[{"name":"amountWei","type":"uint96","internalType":"uint96"},{"name":"funded","type":"bool","internalType":"bool"},{"name":"released","type":"bool","internalType":"bool"},{"name":"refunded","type":"bool","internalType":"bool"}],"stateMutability":"view"},{"type":"function","name":"setMarketplace","inputs":[{"name":"_marketplace","type":"address","internalType":"address"}],"outputs":[],"stateMutability":"nonpayable"},{"type":"function","name":"slashBond","inputs":[{"name":"jobId","type":"uint256","internalType":"uint256"},{"name":"treasury","type":"address","internalType":"address payable"}],"outputs":[],"stateMutability":"nonpayable"},{"type":"event","name":"BondPosted","inputs":[{"name":"jobId","type":"uint256","indexed":true,"internalType":"uint256"},{"name":"agent","type":"address","indexed":true,"internalType":"address"},{"name":"amountWei","type":"uint96","indexed":false,"internalType":"uint96"}],"anonymous":false},{"type":"event","name":"BondReturned","inputs":[{"name":"jobId","type":"uint256","indexed":true,"internalType":"uint256"},{"name":"to","type":"address","indexed":true,"internalType":"address"},{"name":"amountWei","type":"uint96","indexed":false,"internalType":"uint96"}],"anonymous":false},{"type":"event","name":"BondSlashed","inputs":[{"name":"jobId","type":"uint256","indexed":true,"internalType":"uint256"},{"name":"treasury","type":"address","indexed":true,"internalType":"address"},{"name":"amountWei","type":"uint96","indexed":false,"internalType":"uint96"}],"anonymous":false},{"type":"event","name":"RewardFunded","inputs":[{"name":"jobId","type":"uint256","indexed":true,"internalType":"uint256"},{"name":"amountWei","type":"uint96","indexed":false,"internalType":"uint96"}],"anonymous":false},{"type":"event","name":"RewardRefunded","inputs":[{"name":"jobId","type":"uint256","indexed":true,"internalType":"uint256"},{"name":"to","type":"address","indexed":true,"internalType":"address"},{"name":"amountWei","type":"uint96","indexed":false,"internalType":"uint96"}],"anonymous":false},{"type":"event","name":"RewardReleased","inputs":[{"name":"jobId","type":"uint256","indexed":true,"internalType":"uint256"},{"name":"to","type":"address","indexed":true,"internalType":"address"},{"name":"amountWei","type":"uint96","indexed":false,"internalType":"uint96"}],"anonymous":false}],"bytecode":{"object":"0x608080604052346026575f80546001600160a01b03191633179055610c5a908161002b8239f35b5f80fdfe60806040526004361015610011575f80fd5b5f3560e01c80631d43ba0c14610863578063250055e714610743578063388cfbf71461062d5780635f1c17c0146105d557806373ad6c2d146104c95780638da5cb5b146104a2578063a03be0e814610327578063abc8c7af146102ff578063c918af2014610209578063f301af42146101ae5763f6a0adb014610092575f80fd5b346101aa576100a036610988565b6100b560018060a01b036001541633146109ae565b6001600160a01b0316906100ca821515610b0f565b805f52600260205260405f205f8080806001600160601b0385546100f360ff8260601c16610b4c565b61010360ff8260681c1615610b8c565b61011360ff8260701c1615610bd8565b60ff60681b198116600160681b17875516875af161012f610a6d565b501561016c5760206001600160601b037fff3af4543fe27fe802a7e783645cde2354445198a2bdef27f5b8ea942766bd33925416604051908152a3005b60405162461bcd60e51b81526020600482015260166024820152751c995dd85c99081d1c985b9cd9995c8819985a5b195960521b6044820152606490fd5b5f80fd5b346101aa5760203660031901126101aa576004355f526002602052608060405f205460ff604051916001600160601b0381168352818160601c1615156020840152818160681c161515604084015260701c1615156060820152f35b346101aa5761021736610988565b61022c60018060a01b036001541633146109ae565b6001600160a01b031690610241821515610b0f565b805f52600360205260405f2060018101610100815461026260ff82166109ec565b61027260ff8260081c1615610a2a565b61ff0019161790555f808080845460a01c875af161028e610a6d565b50156102c55760207fcec8c5e690163e894affec6ae8222b2ca759b87da012b2dbb1d84be7fe3282d8915460a01c604051908152a3005b60405162461bcd60e51b8152602060048201526012602482015271189bdb99081c995d1d5c9b8819985a5b195960721b6044820152606490fd5b346101aa575f3660031901126101aa576001546040516001600160a01b039091168152602090f35b60403660031901126101aa576024356001600160a01b03811690600435908290036101aa5761036160018060a01b036001541633146109ae565b61036c811515610ad2565b811561046957341561043457805f52600360205260405f20600181019060ff8254166103f9576001600160a01b0384163460a081901b6001600160a01b03191691909117909155815461ffff19166001179091556040516001600160601b039190911681527f5a6275754fa96d5a6d5be7579ff3f86941284ff794b18f113881c2501abdf45690602090a3005b60405162461bcd60e51b8152602060048201526013602482015272189bdb9908185b1c9958591e481c1bdcdd1959606a1b6044820152606490fd5b60405162461bcd60e51b815260206004820152600d60248201526c6e6f20626f6e642076616c756560981b6044820152606490fd5b60405162461bcd60e51b81526020600482015260116024820152701e995c9bc8189bdb991959081859d95b9d607a1b6044820152606490fd5b346101aa575f3660031901126101aa575f546040516001600160a01b039091168152602090f35b346101aa5760203660031901126101aa576004356001600160a01b038116908190036101aa575f546001600160a01b031633036105a457801561056c576001546001600160a01b038116610527576001600160a01b03191617600155005b60405162461bcd60e51b815260206004820152601760248201527f6d61726b6574706c61636520616c7265616479207365740000000000000000006044820152606490fd5b60405162461bcd60e51b815260206004820152601060248201526f7a65726f206d61726b6574706c61636560801b6044820152606490fd5b60405162461bcd60e51b81526020600482015260096024820152683737ba1037bbb732b960b91b6044820152606490fd5b346101aa5760203660031901126101aa576004355f526003602052608060405f2060ff600182549201546040519260018060a01b038116845260a01c60208401528181161515604084015260081c1615156060820152f35b346101aa5761063b36610988565b61065060018060a01b036001541633146109ae565b6001600160a01b031690610665821515610b0f565b805f52600260205260405f205f8080806001600160601b03855461068e60ff8260601c16610b4c565b61069e60ff8260681c1615610b8c565b6106ae60ff8260701c1615610bd8565b60ff60701b198116600160701b17875516875af16106ca610a6d565b50156107075760206001600160601b037f140f6e818f0411d7126f093f09dd175f5d88af98eb8eaa77fc696ebf542c139a925416604051908152a3005b60405162461bcd60e51b81526020600482015260146024820152731c995dd85c99081c99599d5b990819985a5b195960621b6044820152606490fd5b60203660031901126101aa5760043561076760018060a01b036001541633146109ae565b610772811515610ad2565b341561082c57805f52600260205260405f2080549060ff8260601c166107ef5761ffff60681b19600160601b6001600160601b0334166cffffffffffffffffffffffffff19949094168417171690556040519081527f3f4da7a519eb172658739769a3d20463f3470478f1c47d9049453128e92bb52e90602090a2005b60405162461bcd60e51b81526020600482015260156024820152741c995dd85c9908185b1c9958591e48199d5b991959605a1b6044820152606490fd5b60405162461bcd60e51b815260206004820152600f60248201526e6e6f207265776172642076616c756560881b6044820152606490fd5b346101aa5761087136610988565b61088660018060a01b036001541633146109ae565b6001600160a01b031690811561095357805f52600360205260405f206001810161010081546108b760ff82166109ec565b6108c760ff8260081c1615610a2a565b61ff0019161790555f808080845460a01c875af16108e3610a6d565b501561091a5760207fef92d28ba889e454c67f4445b9666a3836e2fca0a70226c628a2fbf4a25bb45c915460a01c604051908152a3005b60405162461bcd60e51b8152602060048201526011602482015270189bdb99081cdb185cda0819985a5b1959607a1b6044820152606490fd5b60405162461bcd60e51b815260206004820152600d60248201526c7a65726f20747265617375727960981b6044820152606490fd5b60409060031901126101aa57600435906024356001600160a01b03811681036101aa5790565b156109b557565b60405162461bcd60e51b815260206004820152600f60248201526e6e6f74206d61726b6574706c61636560881b6044820152606490fd5b156109f357565b60405162461bcd60e51b815260206004820152600f60248201526e189bdb99081b9bdd081c1bdcdd1959608a1b6044820152606490fd5b15610a3157565b60405162461bcd60e51b8152602060048201526014602482015273189bdb9908185b1c9958591e481cd95d1d1b195960621b6044820152606490fd5b3d15610acd573d9067ffffffffffffffff8211610ab95760405191601f8101601f19908116603f0116830167ffffffffffffffff811184821017610ab95760405282523d5f602084013e565b634e487b7160e01b5f52604160045260245ffd5b606090565b15610ad957565b60405162461bcd60e51b815260206004820152600e60248201526d1a5b9d985b1a59081a9bd8881a5960921b6044820152606490fd5b15610b1657565b60405162461bcd60e51b815260206004820152600e60248201526d1e995c9bc81c9958da5c1a595b9d60921b6044820152606490fd5b15610b5357565b60405162461bcd60e51b81526020600482015260116024820152701c995dd85c99081b9bdd08199d5b991959607a1b6044820152606490fd5b15610b9357565b60405162461bcd60e51b815260206004820152601760248201527f72657761726420616c72656164792072656c65617365640000000000000000006044820152606490fd5b15610bdf57565b60405162461bcd60e51b815260206004820152601760248201527f72657761726420616c726561647920726566756e6465640000000000000000006044820152606490fdfea26469706673582212204a10b76dcaa5ffd5f34d437988d2fea60df5ef9e779774741c9e6fc230f3aa1164736f6c63430008210033","linkReferences":{}},"methodIdentifiers":{"bonds(uint256)":"5f1c17c0","fundJobReward(uint256)":"250055e7","marketplace()":"abc8c7af","owner()":"8da5cb5b","postBond(uint256,address)":"a03be0e8","refundReward(uint256,address)":"388cfbf7","releaseReward(uint256,address)":"f6a0adb0","returnBond(uint256,address)":"c918af20","rewards(uint256)":"f301af42","setMarketplace(address)":"73ad6c2d","slashBond(uint256,address)":"1d43ba0c"},"id":18}