{"abi":[{"type":"constructor","inputs":[],"stateMutability":"nonpayable"},{"type":"function","name":"addCategory","inputs":[{"name":"agentWallet","type":"address","internalType":"address"},{"name":"category","type":"bytes32","internalType":"bytes32"}],"outputs":[],"stateMutability":"nonpayable"},{"type":"function","name":"getAgent","inputs":[{"name":"agentWallet","type":"address","internalType":"address"}],"outputs":[{"name":"","type":"tuple","internalType":"struct IBondedTypes.AgentProfile","components":[{"name":"operator","type":"address","internalType":"address"},{"name":"payoutWallet","type":"address","internalType":"address"},{"name":"erc8004Id","type":"bytes32","internalType":"bytes32"},{"name":"manifestURI","type":"string","internalType":"string"},{"name":"basePriceWei","type":"uint96","internalType":"uint96"},{"name":"active","type":"bool","internalType":"bool"}]}],"stateMutability":"view"},{"type":"function","name":"getAgentsByCategory","inputs":[{"name":"category","type":"bytes32","internalType":"bytes32"}],"outputs":[{"name":"","type":"address[]","internalType":"address[]"}],"stateMutability":"view"},{"type":"function","name":"getBondBps","inputs":[{"name":"agentWallet","type":"address","internalType":"address"}],"outputs":[{"name":"","type":"uint16","internalType":"uint16"}],"stateMutability":"view"},{"type":"function","name":"getCategories","inputs":[{"name":"agentWallet","type":"address","internalType":"address"}],"outputs":[{"name":"","type":"bytes32[]","internalType":"bytes32[]"}],"stateMutability":"view"},{"type":"function","name":"getTrustStats","inputs":[{"name":"agentWallet","type":"address","internalType":"address"}],"outputs":[{"name":"","type":"tuple","internalType":"struct IBondedTypes.TrustStats","components":[{"name":"bondedJobsCompleted","type":"uint32","internalType":"uint32"},{"name":"bondedJobsFailed","type":"uint32","internalType":"uint32"},{"name":"reputationScore","type":"uint32","internalType":"uint32"}]}],"stateMutability":"view"},{"type":"function","name":"hasCategory","inputs":[{"name":"","type":"address","internalType":"address"},{"name":"","type":"bytes32","internalType":"bytes32"}],"outputs":[{"name":"","type":"bool","internalType":"bool"}],"stateMutability":"view"},{"type":"function","name":"marketplace","inputs":[],"outputs":[{"name":"","type":"address","internalType":"address"}],"stateMutability":"view"},{"type":"function","name":"noteJobFailure","inputs":[{"name":"agentWallet","type":"address","internalType":"address"}],"outputs":[],"stateMutability":"nonpayable"},{"type":"function","name":"noteJobSuccess","inputs":[{"name":"agentWallet","type":"address","internalType":"address"}],"outputs":[],"stateMutability":"nonpayable"},{"type":"function","name":"owner","inputs":[],"outputs":[{"name":"","type":"address","internalType":"address"}],"stateMutability":"view"},{"type":"function","name":"registerAgent","inputs":[{"name":"agentWallet","type":"address","internalType":"address"},{"name":"payoutWallet","type":"address","internalType":"address"},{"name":"erc8004Id","type":"bytes32","internalType":"bytes32"},{"name":"manifestURI","type":"string","internalType":"string"},{"name":"categories","type":"bytes32[]","internalType":"bytes32[]"},{"name":"basePriceWei","type":"uint96","internalType":"uint96"}],"outputs":[],"stateMutability":"nonpayable"},{"type":"function","name":"setActive","inputs":[{"name":"agentWallet","type":"address","internalType":"address"},{"name":"active","type":"bool","internalType":"bool"}],"outputs":[],"stateMutability":"nonpayable"},{"type":"function","name":"setMarketplace","inputs":[{"name":"_marketplace","type":"address","internalType":"address"}],"outputs":[],"stateMutability":"nonpayable"},{"type":"function","name":"updateManifestURI","inputs":[{"name":"agentWallet","type":"address","internalType":"address"},{"name":"manifestURI","type":"string","internalType":"string"}],"outputs":[],"stateMutability":"nonpayable"},{"type":"event","name":"AgentActiveSet","inputs":[{"name":"agentWallet","type":"address","indexed":true,"internalType":"address"},{"name":"active","type":"bool","indexed":false,"internalType":"bool"}],"anonymous":false},{"type":"event","name":"AgentCategoryAdded","inputs":[{"name":"agentWallet","type":"address","indexed":true,"internalType":"address"},{"name":"category","type":"bytes32","indexed":true,"internalType":"bytes32"}],"anonymous":false},{"type":"event","name":"AgentManifestUpdated","inputs":[{"name":"agentWallet","type":"address","indexed":true,"internalType":"address"},{"name":"manifestURI","type":"string","indexed":false,"internalType":"string"}],"anonymous":false},{"type":"event","name":"AgentRegistered","inputs":[{"name":"agentWallet","type":"address","indexed":true,"internalType":"address"},{"name":"operator","type":"address","indexed":true,"internalType":"address"},{"name":"erc8004Id","type":"bytes32","indexed":true,"internalType":"bytes32"},{"name":"manifestURI","type":"string","indexed":false,"internalType":"string"}],"anonymous":false},{"type":"event","name":"TrustStatsUpdated","inputs":[{"name":"agentWallet","type":"address","indexed":true,"internalType":"address"},{"name":"bondedJobsCompleted","type":"uint32","indexed":false,"internalType":"uint32"},{"name":"bondedJobsFailed","type":"uint32","indexed":false,"internalType":"uint32"},{"name":"reputationScore","type":"uint32","indexed":false,"internalType":"uint32"}],"anonymous":false}],"bytecode":{"object":"0x608080604052346026575f80546001600160a01b03191633179055611409908161002b8239f35b5f80fdfe60806040526004361015610011575f80fd5b5f3560e01c80630947d34614610f7357806318f60eaa14610e375780632ce962cf14610d6d578063681ceea114610cb9578063728e7dfe14610ba357806373ad6c2d14610a9b5780638da5cb5b14610a745780638fe89f09146109bc578063a0b1c67e14610973578063aa724b4414610574578063abc8c7af1461054c578063d55f769b14610386578063db7333d41461031a578063f16606661461028a5763fb3551ff146100be575f80fd5b34610286576020366003190112610286576100d7610fa2565b5f60a06040516100e681611124565b828152826020820152826040820152606080820152826080820152015260018060a01b03165f52600260205260405f2060405161012281611124565b81546001600160a01b039081168252600183015416602082019081526002830154604080840191825251600385018054939591935f91610161826111bf565b80875291600181169081156102605750600114610224575b87610100886020896001600160601b038a60048b610199858d038661115c565b606087019485520154926080860191838516835260ff60a088019560601c161515855260405198899787895260018060a01b039051168789015260018060a01b0390511660408801525160608701525160c0608087015280519485918260e0890152018787015e5f858501870152511660a084015251151560c0830152601f01601f19168101030190f35b5f908152602081209092505b8183106102465750508301602001826004610179565b6001816020929493945483858a0101520191019190610230565b60ff191660208089019190915292151560051b8701909201925084915060049050610179565b5f80fd5b34610286576020366003190112610286576102a3610fa2565b5f604080516102b181611140565b828152826020820152015260018060a01b03165f526003602052606060405f2063ffffffff604051916102e383611140565b5481808216938481528160406020830192828660201c168452019360401c1683526040519485525116602084015251166040820152f35b3461028657604036600319011261028657610384610336610fa2565b6001600160a01b038181165f81815260026020526040902054909161035d91161515610fe6565b5f52600260205261037b60018060a01b0360405f20541633146110e9565b602435906112a5565b005b346102865760403660031901126102865761039f610fa2565b60243567ffffffffffffffff8111610286576103bf903690600401610fb8565b6001600160a01b039283165f81815260026020526040902054929390926103e891161515610fe6565b815f52600260205261040760018060a01b0360405f20541633146110e9565b61041281151561117e565b815f526002602052600360405f20019267ffffffffffffffff8211610538576104458261043f86546111bf565b866111f7565b5f93601f83116001146104b65761049483807fb50033393b255482498e2dfdede2bf1fb0913d3ac1090000e70bdc2143b7f82796975f916104ab575b508160011b915f199060031b1c19161790565b90555b6104a660405192839283611255565b0390a2005b905084013588610481565b601f19831694815f5260205f20905f5b8781106105205750847fb50033393b255482498e2dfdede2bf1fb0913d3ac1090000e70bdc2143b7f827969710610507575b5050600183811b019055610497565b8301355f19600386901b60f8161c1916905585806104f8565b909160206001819285880135815501930191016104c6565b634e487b7160e01b5f52604160045260245ffd5b34610286575f366003190112610286576001546040516001600160a01b039091168152602090f35b346102865760c03660031901126102865761058d610fa2565b6024356001600160a01b03811690819003610286576044359060643567ffffffffffffffff8111610286576105c6903690600401610fb8565b92906084359267ffffffffffffffff841161028657366023850112156102865783600401359467ffffffffffffffff8611610286573660248760051b870101116102865760a4356001600160601b038116809103610286576001600160a01b03881692831561093a5780156109005761064083151561117e565b5f848152600260205260409020546001600160a01b03166108bb5760405161066781611124565b338152602081019182526040810187815267ffffffffffffffff8511610538576040519061069f601f8701601f19166020018361115c565b858252368689011161028657858860208401375f82870160209081018290526060850193845260808501968752600160a086018181528a84526002928390526040909320955186546001600160a01b03199081166001600160a01b0392831617885597519187018054909816911617909555905193830193909355518051600383019167ffffffffffffffff8211610538576107458261073f85546111bf565b856111f7565b602090601f8311600114610822576107e0946107ee97946107ab857f0ccbece07e9e942dc3afc804e70ce0fa736f9176c6f004ee07f7a57648e9e0a09b99966001600160601b03966004965f92610817575b50508160011b915f199060031b1c19161790565b90555b019251166001600160601b031983541617825551151581549060ff60601b90151560601b169060ff60601b1916179055565b604051918291339683611255565b0390a45f5b828110156103845760019061081160248260051b85010135866112a5565b016107f3565b015190505f80610797565b90601f19831691845f52815f20925f5b8181106108a35750946001856001600160601b03956004956107e09a957f0ccbece07e9e942dc3afc804e70ce0fa736f9176c6f004ee07f7a57648e9e0a09e9c996107ee9e9b1061088b575b505050811b0190556107ae565b01515f1960f88460031b161c191690555f808061087e565b92936020600181928786015181550195019301610832565b60405162461bcd60e51b815260206004820152601860248201527f6167656e7420616c7265616479207265676973746572656400000000000000006044820152606490fd5b60405162461bcd60e51b81526020600482015260126024820152711e995c9bc81c185e5bdd5d081dd85b1b195d60721b6044820152606490fd5b60405162461bcd60e51b81526020600482015260116024820152701e995c9bc81859d95b9d081dd85b1b195d607a1b6044820152606490fd5b34610286576040366003190112610286576001600160a01b03610994610fa2565b165f52600660205260405f206024355f52602052602060ff60405f2054166040519015158152f35b34610286576020366003190112610286576004355f52600560205260405f20604051806020835491828152019081935f5260205f20905f5b818110610a555750505081610a0a91038261115c565b604051918291602083019060208452518091526040830191905f5b818110610a33575050500390f35b82516001600160a01b0316845285945060209384019390920191600101610a25565b82546001600160a01b03168452602090930192600192830192016109f4565b34610286575f366003190112610286575f546040516001600160a01b039091168152602090f35b3461028657602036600319011261028657610ab4610fa2565b5f546001600160a01b03163303610b72576001600160a01b03168015610b3a576001546001600160a01b038116610af5576001600160a01b03191617600155005b60405162461bcd60e51b815260206004820152601760248201527f6d61726b6574706c61636520616c7265616479207365740000000000000000006044820152606490fd5b60405162461bcd60e51b815260206004820152601060248201526f7a65726f206d61726b6574706c61636560801b6044820152606490fd5b60405162461bcd60e51b81526020600482015260096024820152683737ba1037bbb732b960b91b6044820152606490fd5b3461028657602036600319011261028657610bbc610fa2565b610bd160018060a01b03600154163314611093565b6001600160a01b039081165f818152600260205260409020549091610bf891161515610fe6565b805f52600360205260405f20600a63ffffffff825481610c198183166110d1565b16908219161780845560401c160163ffffffff8111610ca557815463ffffffff60401b191660409190911b63ffffffff60401b161781557fa571dce0a5e6a2c86a34a856ed7764eb6979352483d222a02bd4a306c3f1aaeb906104a6905b546040805163ffffffff8084168252602084811c82169083015292821c909216908201529081906060820190565b634e487b7160e01b5f52601160045260245ffd5b34610286576020366003190112610286576001600160a01b03610cda610fa2565b165f52600460205260405f20604051806020835491828152019081935f5260205f20905f5b818110610d575750505081610d1591038261115c565b604051918291602083019060208452518091526040830191905f5b818110610d3e575050500390f35b8251845285945060209384019390920191600101610d30565b8254845260209093019260019283019201610cff565b3461028657604036600319011261028657610d86610fa2565b6024359081151590818303610286577f6057330a6a595f580d3c93512b86d7a581062f3fe3ce3b84da4e30d037924c7791610e2e60209260018060a01b031694855f5260028452610de460018060a01b0360405f2054161515610fe6565b855f5260028452610e0260018060a01b0360405f20541633146110e9565b5f8681526002855260409020600401805460ff60601b191691151560601b60ff60601b16919091179055565b604051908152a2005b3461028657602036600319011261028657610e50610fa2565b610e6560018060a01b03600154163314611093565b6001600160a01b039081165f818152600260205260409020549091610e8c91161515610fe6565b805f52600360205260405f20600563ffffffff825467ffffffff00000000610eb8838360201c166110d1565b60201b169067ffffffff0000000019161780845560401c1610155f14610f3b5760041963ffffffff825460401c160163ffffffff8111610ca557815463ffffffff60401b191660409190911b63ffffffff60401b161781557fa571dce0a5e6a2c86a34a856ed7764eb6979352483d222a02bd4a306c3f1aaeb906104a690610c77565b6104a67fa571dce0a5e6a2c86a34a856ed7764eb6979352483d222a02bd4a306c3f1aaeb9163ffffffff60401b198154168155610c77565b34610286576020366003190112610286576020610f96610f91610fa2565b611029565b61ffff60405191168152f35b600435906001600160a01b038216820361028657565b9181601f840112156102865782359167ffffffffffffffff8311610286576020838186019501011161028657565b15610fed57565b60405162461bcd60e51b81526020600482015260146024820152731859d95b9d081b9bdd081c9959da5cdd195c995960621b6044820152606490fd5b6001600160a01b039081165f81815260026020526040902054909161105091161515610fe6565b5f52600360205263ffffffff60405f205416801561108c57600381111561108557600a101561107f576101f490565b6103e890565b506107d090565b50610bb890565b1561109a57565b60405162461bcd60e51b815260206004820152600f60248201526e6e6f74206d61726b6574706c61636560881b6044820152606490fd5b63ffffffff60019116019063ffffffff8211610ca557565b156110f057565b60405162461bcd60e51b815260206004820152600c60248201526b3737ba1037b832b930ba37b960a11b6044820152606490fd5b60c0810190811067ffffffffffffffff82111761053857604052565b6060810190811067ffffffffffffffff82111761053857604052565b90601f8019910116810190811067ffffffffffffffff82111761053857604052565b1561118557565b60405162461bcd60e51b8152602060048201526012602482015271656d707479206d616e69666573742055524960701b6044820152606490fd5b90600182811c921680156111ed575b60208310146111d957565b634e487b7160e01b5f52602260045260245ffd5b91607f16916111ce565b919091601f8311611208575b505050565b81831161121457505050565b5f5260205f206020601f830160051c921061124d575b81601f9101920160051c03905f5b82811015611203575f82820155600101611238565b5f915061122a565b90918060409360208452816020850152848401375f828201840152601f01601f1916010190565b8054821015611291575f5260205f2001905f90565b634e487b7160e01b5f52603260045260245ffd5b811561139e5760018060a01b0316805f52600660205260405f20825f5260205260ff60405f20541661139a57805f52600660205260405f20825f5260205260405f20600160ff19825416179055805f52600460205260405f208054600160401b8110156105385761131b9160018201815561127c565b81549060031b9084821b915f19901b1916179055815f52600560205260405f208054600160401b811015610538576113589160018201815561127c565b81546001600160a01b0360039290921b91821b19169083901b1790557f3ae051ea27c02ca8d0a57aaabe89edb5a424fb26fe51db141e72deec01a11df75f80a3565b5050565b60405162461bcd60e51b815260206004820152600d60248201526c7a65726f2063617465676f727960981b6044820152606490fdfea26469706673582212200a74f2d5cf0fad734f7d89f3af25b6364f6a0f5401ca54a89339ecd278f15f3d64736f6c63430008210033","linkReferences":{}},"methodIdentifiers":{"addCategory(address,bytes32)":"db7333d4","getAgent(address)":"fb3551ff","getAgentsByCategory(bytes32)":"8fe89f09","getBondBps(address)":"0947d346","getCategories(address)":"681ceea1","getTrustStats(address)":"f1660666","hasCategory(address,bytes32)":"a0b1c67e","marketplace()":"abc8c7af","noteJobFailure(address)":"18f60eaa","noteJobSuccess(address)":"728e7dfe","owner()":"8da5cb5b","registerAgent(address,address,bytes32,string,bytes32[],uint96)":"aa724b44","setActive(address,bool)":"2ce962cf","setMarketplace(address)":"73ad6c2d","updateManifestURI(address,string)":"d55f769b"},"id":16}